{
    "contractName": "Groth16Verifier",
    "abi": [
        {
            "inputs": [
                {
                    "internalType": "uint256[2]",
                    "name": "_pA",
                    "type": "uint256[2]"
                },
                {
                    "internalType": "uint256[2][2]",
                    "name": "_pB",
                    "type": "uint256[2][2]"
                },
                {
                    "internalType": "uint256[2]",
                    "name": "_pC",
                    "type": "uint256[2]"
                },
                {
                    "internalType": "uint256[7]",
                    "name": "_pubSignals",
                    "type": "uint256[7]"
                }
            ],
            "name": "verifyProof",
            "outputs": [
                {
                    "internalType": "bool",
                    "name": "",
                    "type": "bool"
                }
            ],
            "stateMutability": "view",
            "type": "function"
        }
    ],
    "bytecode": "60808060405234601557610816908161001a8239f35b5f80fdfe60806040526004361015610011575f80fd5b5f3560e01c63c894e75714610024575f80fd5b346103ca576101e03660031901126103ca5761003f366103ce565b3660c4116103ca57610050366103db565b366101e4116103ca577f30644e72e131a029b85045b68181585d97816a916871ca8d3c208c16d87cfd476020809361040060405261016161010435610094816103e9565b61015c610124356100a4816103e9565b610157610144356100b4816103e9565b610152610164356100c4816103e9565b61014d61018435936100d5856103e9565b6101486101a435976100e6896103e9565b6101436101c4359b6100f78d6103e9565b7e1996b6796a0b241de52c0b82f6f8d02ddbb0cb26448247f8f74b63bb8540ab6080527f013625dfb0e0dbe77155ac5d4e4d4af26dd63643ff79cba96b72b0411b15f7a960a05261041a565b6104a4565b61052e565b6105b8565b610642565b6106cc565b610756565b80356101005201358103066101205260443561014052606435610160526084356101805260a4356101a0527f23406ca091c4369913d773b27280068e0ae77e77a9791a0d7e6bbb58ae14f3626101c0527f2e8c28a7a268e61f6946e0505432c2e21bcc3ce79f24b9dc148849122eb0c4ca6101e0527f0de5612281b261d5bc6b535bc8d367f7448c6eafc29aff311f91706188e1ee06610200527f07afe7eff86d28e6b486b4f8a077dab6ecb8943bed34dd3d52d1873f705f6845610220527f0422b49d25759c5e533de63a5a65989de6f0404ebf1c3df59f0a558db73bb9ec610240527f265fbbbdcc7c680c283d84d424479f42becab428b2ce19a7f81f34496125173d610260526080516102805260a0516102a0527f198e9393920d483a7260bfb731fb5d25f1aa493335a9e71297e485b7aef312c26102c0527f1800deef121f1e76426a00665e5c4479674322d4f75edadd46debd5cd992f6ed6102e0527f090689d0585ff075ec9e99ad690c3395bc4b313370b38ef355acdadcd122975b610300527f12c85ea5db8c6deb4aab71808dcb408fe3d1e7690c43d37b4ce6cc0166fa7daa610320528035610340520135610360527f198e9393920d483a7260bfb731fb5d25f1aa493335a9e71297e485b7aef312c2610380527f1800deef121f1e76426a00665e5c4479674322d4f75edadd46debd5cd992f6ed6103a0527f090689d0585ff075ec9e99ad690c3395bc4b313370b38ef355acdadcd122975b6103c0527f12c85ea5db8c6deb4aab71808dcb408fe3d1e7690c43d37b4ce6cc0166fa7daa6103e05260206101006103008160086107cf195a01fa61010051165f5260205ff35b5f80fd5b906004916044116103ca57565b9060c491610104116103ca57565b7f30644e72e131a029b85045b68181585d2833e84879b9709143e1f593f0000001111561041257565b5f805260205ff35b6040517f292d559d34e0ff4f2c2432e802e83d73e95f7a6e4016e91f081a04d1760963d081527f038ec9b7039043fc1545ac3cbacafbb8f88f8f37c6fe0b0b0c9c790b7542cdd060208201526040810191825260408160608160076107cf195a01fa1561041257608080916040938251905260a051606082015260066107cf195a01fa1561041257565b6040517f104a7659c091ae0b3ee92924609a7200415e0988914b6d435a8e6bdd4bc26cbe81527f15bfbbabe1939e832e3f52a44d1782d887e43dab41834a3418f97b38263fd79360208201526040810191825260408160608160076107cf195a01fa1561041257608080916040938251905260a051606082015260066107cf195a01fa1561041257565b6040517f2030f93833aa014454f6fb0ff4eda21242daf794dd504aa9d5cf200bbdbe6ab281527f2f5ae03a29224ccccc1172bdee8cc1bfe1bba3a7313817c851ba284a038d53f960208201526040810191825260408160608160076107cf195a01fa1561041257608080916040938251905260a051606082015260066107cf195a01fa1561041257565b6040517f2dd415aec2038104a3641a5c19509d51299782bd08900dd759c5df6fe308f2e381527f02d5bad91a69b65d8ebeb4a381162422290d7b66a0eb24abdb98ab54cf1f110d60208201526040810191825260408160608160076107cf195a01fa1561041257608080916040938251905260a051606082015260066107cf195a01fa1561041257565b6040517f0f117623defdfba4d1ec772c0e545bac8b3d6db082fd597c8fcde4775aa67e2d81527f0a1e8132bb9d4f8f8f66ea4e81b9f3e1924a8bc6f96fdb8e85ea13b5b35f55c260208201526040810191825260408160608160076107cf195a01fa1561041257608080916040938251905260a051606082015260066107cf195a01fa1561041257565b6040517f2666fc0a6931fedf9b33d489896e7dd3f888c63f706b3db869985a78082aae0681527f21c3c5608fe0964053b826620ebba61f659845cfc72e115fc009448bf895852b60208201526040810191825260408160608160076107cf195a01fa1561041257608080916040938251905260a051606082015260066107cf195a01fa1561041257565b6040517f256062f6ca1d501bec8b34fc816b8251c95cdea154ad4d1c78013c7223dcc09b81527f0885ebf96627bf1a86c505d9fc5168b5326c0e75a46936a5a62e251e4299c32960208201526040810191825260408160608160076107cf195a01fa1561041257608080916040938251905260a051606082015260066107cf195a01fa156104125756fea26469706673582212203d52f6cf6adaab60770cc4e0ccea9f4623059db0020c5f04c2d618730e67c68064736f6c634300081d0033",
    "sourcePath": "/home/sarah/pfe/zkp-authentification/contracts/Verifier.sol",
    "compiler": {
        "name": "solc",
        "version": "0.8.29+commit.ab55807c"
    },
    "functionHashes": {
        "verifyProof(uint256[2],uint256[2][2],uint256[2],uint256[7])": "c894e757"
    },
    "gasEstimates": {
        "creation": {
            "codeDepositCost": "414000",
            "executionCost": "456",
            "totalCost": "414456"
        },
        "external": {
            "verifyProof(uint256[2],uint256[2][2],uint256[2],uint256[7])": "infinite"
        }
    }
}